{
  "contractName": "Shop",
  "abi": [
    {
      "inputs": [],
      "stateMutability": "nonpayable",
      "type": "constructor"
    },
    {
      "anonymous": false,
      "inputs": [
        {
          "indexed": false,
          "internalType": "uint256",
          "name": "id",
          "type": "uint256"
        },
        {
          "indexed": false,
          "internalType": "string",
          "name": "name",
          "type": "string"
        },
        {
          "indexed": false,
          "internalType": "string",
          "name": "description",
          "type": "string"
        },
        {
          "indexed": false,
          "internalType": "bool",
          "name": "sold",
          "type": "bool"
        },
        {
          "indexed": false,
          "internalType": "address payable",
          "name": "owner",
          "type": "address"
        },
        {
          "indexed": false,
          "internalType": "uint256",
          "name": "price",
          "type": "uint256"
        }
      ],
      "name": "CreateProduct",
      "type": "event"
    },
    {
      "anonymous": false,
      "inputs": [
        {
          "indexed": false,
          "internalType": "uint256",
          "name": "id",
          "type": "uint256"
        },
        {
          "indexed": false,
          "internalType": "string",
          "name": "name",
          "type": "string"
        },
        {
          "indexed": false,
          "internalType": "string",
          "name": "description",
          "type": "string"
        },
        {
          "indexed": false,
          "internalType": "bool",
          "name": "sold",
          "type": "bool"
        },
        {
          "indexed": false,
          "internalType": "address payable",
          "name": "owner",
          "type": "address"
        },
        {
          "indexed": false,
          "internalType": "uint256",
          "name": "price",
          "type": "uint256"
        }
      ],
      "name": "PurchasedProduct",
      "type": "event"
    },
    {
      "inputs": [],
      "name": "count",
      "outputs": [
        {
          "internalType": "uint256",
          "name": "",
          "type": "uint256"
        }
      ],
      "stateMutability": "view",
      "type": "function",
      "constant": true
    },
    {
      "inputs": [],
      "name": "shopName",
      "outputs": [
        {
          "internalType": "string",
          "name": "",
          "type": "string"
        }
      ],
      "stateMutability": "view",
      "type": "function",
      "constant": true
    },
    {
      "inputs": [
        {
          "internalType": "uint256",
          "name": "",
          "type": "uint256"
        }
      ],
      "name": "shopProducts",
      "outputs": [
        {
          "internalType": "uint256",
          "name": "id",
          "type": "uint256"
        },
        {
          "internalType": "string",
          "name": "name",
          "type": "string"
        },
        {
          "internalType": "string",
          "name": "description",
          "type": "string"
        },
        {
          "internalType": "bool",
          "name": "sold",
          "type": "bool"
        },
        {
          "internalType": "address payable",
          "name": "owner",
          "type": "address"
        },
        {
          "internalType": "uint256",
          "name": "price",
          "type": "uint256"
        }
      ],
      "stateMutability": "view",
      "type": "function",
      "constant": true
    },
    {
      "inputs": [
        {
          "internalType": "string",
          "name": "name",
          "type": "string"
        },
        {
          "internalType": "uint256",
          "name": "price",
          "type": "uint256"
        },
        {
          "internalType": "string",
          "name": "description",
          "type": "string"
        }
      ],
      "name": "createShopProduct",
      "outputs": [],
      "stateMutability": "nonpayable",
      "type": "function"
    },
    {
      "inputs": [
        {
          "internalType": "uint256",
          "name": "_id",
          "type": "uint256"
        }
      ],
      "name": "PurchasedShopProduct",
      "outputs": [],
      "stateMutability": "payable",
      "type": "function",
      "payable": true
    }
  ],
  "bytecode": "0x608060405260006001553480156200001657600080fd5b506040518060400160405280600881526020017f5468652073686f7000000000000000000000000000000000000000000000000081525060009080519060200190620000649291906200006b565b5062000180565b82805462000079906200014a565b90600052602060002090601f0160209004810192826200009d5760008555620000e9565b82601f10620000b857805160ff1916838001178555620000e9565b82800160010185558215620000e9579182015b82811115620000e8578251825591602001919060010190620000cb565b5b509050620000f89190620000fc565b5090565b5b8082111562000117576000816000905550600101620000fd565b5090565b7f4e487b7100000000000000000000000000000000000000000000000000000000600052602260045260246000fd5b600060028204905060018216806200016357607f821691505b602082108114156200017a57620001796200011b565b5b50919050565b6112a080620001906000396000f3fe60806040526004361061004a5760003560e01c806306661abd1461004f57806313dccad81461007a578063390f81ca146100bc578063d1118f5a146100d8578063d83e3c0414610103575b600080fd5b34801561005b57600080fd5b5061006461012c565b6040516100719190610ac9565b60405180910390f35b34801561008657600080fd5b506100a1600480360381019061009c9190610b24565b610132565b6040516100b396959493929190610c46565b60405180910390f35b6100d660048036038101906100d19190610b24565b6102ab565b005b3480156100e457600080fd5b506100ed610782565b6040516100fa9190610cb5565b60405180910390f35b34801561010f57600080fd5b5061012a60048036038101906101259190610e0c565b610810565b005b60015481565b600260205280600052604060002060009150905080600001549080600101805461015b90610ec6565b80601f016020809104026020016040519081016040528092919081815260200182805461018790610ec6565b80156101d45780601f106101a9576101008083540402835291602001916101d4565b820191906000526020600020905b8154815290600101906020018083116101b757829003601f168201915b5050505050908060020180546101e990610ec6565b80601f016020809104026020016040519081016040528092919081815260200182805461021590610ec6565b80156102625780601f1061023757610100808354040283529160200191610262565b820191906000526020600020905b81548152906001019060200180831161024557829003601f168201915b5050505050908060030160009054906101000a900460ff16908060030160019054906101000a900473ffffffffffffffffffffffffffffffffffffffff16908060040154905086565b6000600260008381526020019081526020016000206040518060c0016040529081600082015481526020016001820180546102e590610ec6565b80601f016020809104026020016040519081016040528092919081815260200182805461031190610ec6565b801561035e5780601f106103335761010080835404028352916020019161035e565b820191906000526020600020905b81548152906001019060200180831161034157829003601f168201915b5050505050815260200160028201805461037790610ec6565b80601f01602080910402602001604051908101604052809291908181526020018280546103a390610ec6565b80156103f05780601f106103c5576101008083540402835291602001916103f0565b820191906000526020600020905b8154815290600101906020018083116103d357829003601f168201915b505050505081526020016003820160009054906101000a900460ff161515151581526020016003820160019054906101000a900473ffffffffffffffffffffffffffffffffffffffff1673ffffffffffffffffffffffffffffffffffffffff1673ffffffffffffffffffffffffffffffffffffffff16815260200160048201548152505090506000816080015190503373ffffffffffffffffffffffffffffffffffffffff168173ffffffffffffffffffffffffffffffffffffffff1614156104ee576040517f08c379a00000000000000000000000000000000000000000000000000000000081526004016104e590610f44565b60405180910390fd5b8160a00151341015610535576040517f08c379a000000000000000000000000000000000000000000000000000000000815260040161052c90610fd6565b60405180910390fd5b6000826000015111801561054f5750600154826000015111155b61058e576040517f08c379a000000000000000000000000000000000000000000000000000000000815260040161058590611042565b60405180910390fd5b8160600151156105d3576040517f08c379a00000000000000000000000000000000000000000000000000000000081526004016105ca906110ae565b60405180910390fd5b33826080019073ffffffffffffffffffffffffffffffffffffffff16908173ffffffffffffffffffffffffffffffffffffffff168152505060018260600190151590811515815250508160026000858152602001908152602001600020600082015181600001556020820151816001019080519060200190610656929190610a0d565b506040820151816002019080519060200190610673929190610a0d565b5060608201518160030160006101000a81548160ff02191690831515021790555060808201518160030160016101000a81548173ffffffffffffffffffffffffffffffffffffffff021916908373ffffffffffffffffffffffffffffffffffffffff16021790555060a082015181600401559050508073ffffffffffffffffffffffffffffffffffffffff166108fc349081150290604051600060405180830381858888f1935050505015801561072e573d6000803e3d6000fd5b507ffa078c6785eea5a2cde9d6a7d6a45f707e83cdb0af650014042a642b5f80f27283836020015184604001516001338760a0015160405161077596959493929190610c46565b60405180910390a1505050565b6000805461078f90610ec6565b80601f01602080910402602001604051908101604052809291908181526020018280546107bb90610ec6565b80156108085780601f106107dd57610100808354040283529160200191610808565b820191906000526020600020905b8154815290600101906020018083116107eb57829003601f168201915b505050505081565b60008211610853576040517f08c379a000000000000000000000000000000000000000000000000000000000815260040161084a90611140565b60405180910390fd5b6000835111610897576040517f08c379a000000000000000000000000000000000000000000000000000000000815260040161088e906111d2565b60405180910390fd5b600160008154809291906108aa90611221565b91905055506040518060c0016040528060015481526020018481526020018281526020016000151581526020013373ffffffffffffffffffffffffffffffffffffffff16815260200183815250600260006001548152602001908152602001600020600082015181600001556020820151816001019080519060200190610932929190610a0d565b50604082015181600201908051906020019061094f929190610a0d565b5060608201518160030160006101000a81548160ff02191690831515021790555060808201518160030160016101000a81548173ffffffffffffffffffffffffffffffffffffffff021916908373ffffffffffffffffffffffffffffffffffffffff16021790555060a082015181600401559050507f279cc54ed51d8f0cd992883ed5204909d5a4ee1a29910960f0c8db5f90d144bb600154848360003387604051610a0096959493929190610c46565b60405180910390a1505050565b828054610a1990610ec6565b90600052602060002090601f016020900481019282610a3b5760008555610a82565b82601f10610a5457805160ff1916838001178555610a82565b82800160010185558215610a82579182015b82811115610a81578251825591602001919060010190610a66565b5b509050610a8f9190610a93565b5090565b5b80821115610aac576000816000905550600101610a94565b5090565b6000819050919050565b610ac381610ab0565b82525050565b6000602082019050610ade6000830184610aba565b92915050565b6000604051905090565b600080fd5b600080fd5b610b0181610ab0565b8114610b0c57600080fd5b50565b600081359050610b1e81610af8565b92915050565b600060208284031215610b3a57610b39610aee565b5b6000610b4884828501610b0f565b91505092915050565b600081519050919050565b600082825260208201905092915050565b60005b83811015610b8b578082015181840152602081019050610b70565b83811115610b9a576000848401525b50505050565b6000601f19601f8301169050919050565b6000610bbc82610b51565b610bc68185610b5c565b9350610bd6818560208601610b6d565b610bdf81610ba0565b840191505092915050565b60008115159050919050565b610bff81610bea565b82525050565b600073ffffffffffffffffffffffffffffffffffffffff82169050919050565b6000610c3082610c05565b9050919050565b610c4081610c25565b82525050565b600060c082019050610c5b6000830189610aba565b8181036020830152610c6d8188610bb1565b90508181036040830152610c818187610bb1565b9050610c906060830186610bf6565b610c9d6080830185610c37565b610caa60a0830184610aba565b979650505050505050565b60006020820190508181036000830152610ccf8184610bb1565b905092915050565b600080fd5b600080fd5b7f4e487b7100000000000000000000000000000000000000000000000000000000600052604160045260246000fd5b610d1982610ba0565b810181811067ffffffffffffffff82111715610d3857610d37610ce1565b5b80604052505050565b6000610d4b610ae4565b9050610d578282610d10565b919050565b600067ffffffffffffffff821115610d7757610d76610ce1565b5b610d8082610ba0565b9050602081019050919050565b82818337600083830152505050565b6000610daf610daa84610d5c565b610d41565b905082815260208101848484011115610dcb57610dca610cdc565b5b610dd6848285610d8d565b509392505050565b600082601f830112610df357610df2610cd7565b5b8135610e03848260208601610d9c565b91505092915050565b600080600060608486031215610e2557610e24610aee565b5b600084013567ffffffffffffffff811115610e4357610e42610af3565b5b610e4f86828701610dde565b9350506020610e6086828701610b0f565b925050604084013567ffffffffffffffff811115610e8157610e80610af3565b5b610e8d86828701610dde565b9150509250925092565b7f4e487b7100000000000000000000000000000000000000000000000000000000600052602260045260246000fd5b60006002820490506001821680610ede57607f821691505b60208210811415610ef257610ef1610e97565b5b50919050565b7f43616e27742062757920796f75722070726f6475637473000000000000000000600082015250565b6000610f2e601783610b5c565b9150610f3982610ef8565b602082019050919050565b60006020820190508181036000830152610f5d81610f21565b9050919050565b7f5468652076616c75652073686f756c6420657175616c206f722067726561746560008201527f72207468616e2070726f64756374207072696365000000000000000000000000602082015250565b6000610fc0603483610b5c565b9150610fcb82610f64565b604082019050919050565b60006020820190508181036000830152610fef81610fb3565b9050919050565b7f4e6f742076616c69642069640000000000000000000000000000000000000000600082015250565b600061102c600c83610b5c565b915061103782610ff6565b602082019050919050565b6000602082019050818103600083015261105b8161101f565b9050919050565b7f536f6c64206974656d0000000000000000000000000000000000000000000000600082015250565b6000611098600983610b5c565b91506110a382611062565b602082019050919050565b600060208201905081810360008301526110c78161108b565b9050919050565b7f5468652070726963652073686f756c642062652067726561746572207468616e60008201527f2030000000000000000000000000000000000000000000000000000000000000602082015250565b600061112a602283610b5c565b9150611135826110ce565b604082019050919050565b600060208201905081810360008301526111598161111d565b9050919050565b7f5468652070726f64756374206e616d652073686f756c6420686176652061207660008201527f616c756500000000000000000000000000000000000000000000000000000000602082015250565b60006111bc602483610b5c565b91506111c782611160565b604082019050919050565b600060208201905081810360008301526111eb816111af565b9050919050565b7f4e487b7100000000000000000000000000000000000000000000000000000000600052601160045260246000fd5b600061122c82610ab0565b91507fffffffffffffffffffffffffffffffffffffffffffffffffffffffffffffffff82141561125f5761125e6111f2565b5b60018201905091905056fea264697066735822122021b3142083dcc87320df5b227f5bcb95887fc5703b93eb7d751a2aaa849fc8f664736f6c63430008090033",
  "immutableReferences": {},
  "source": "// SPDX-License-Identifier: MIT\r\npragma solidity >=0.7.0;\r\n\r\ncontract Shop {\r\n    string public shopName;\r\n    uint256 public count = 0;\r\n\r\n    constructor() {\r\n        shopName = \"The shop\";\r\n    }\r\n\r\n    struct Product {\r\n        uint256 id;\r\n        string name;\r\n        string description;\r\n        bool sold;\r\n        address payable owner;\r\n        uint256 price;\r\n    }\r\n\r\n    event CreateProduct(\r\n        uint256 id,\r\n        string name,\r\n        string description,\r\n        bool sold,\r\n        address payable owner,\r\n        uint256 price\r\n    );\r\n\r\n    event PurchasedProduct(\r\n        uint256 id,\r\n        string name,\r\n        string description,\r\n        bool sold,\r\n        address payable owner,\r\n        uint256 price\r\n    );\r\n\r\n    mapping(uint256 => Product) public shopProducts;\r\n\r\n    function createShopProduct(\r\n        string memory name,\r\n        uint256 price,\r\n        string memory description\r\n    ) public {\r\n        require(price > 0, \"The price should be greater than 0\");\r\n        require(bytes(name).length > 0, \"The product name should have a value\");\r\n        count++;\r\n        shopProducts[count] = Product(\r\n            count,\r\n            name,\r\n            description,\r\n            false,\r\n            payable(msg.sender),\r\n            price\r\n        );\r\n\r\n        emit CreateProduct(\r\n            count,\r\n            name,\r\n            description,\r\n            false,\r\n            payable(msg.sender),\r\n            price\r\n        );\r\n    }\r\n\r\n    function PurchasedShopProduct(uint256 _id) public payable {\r\n        Product memory singleProduct = shopProducts[_id];\r\n        address payable seller = singleProduct.owner;\r\n\r\n        require(seller != msg.sender, \"Can't buy your products\");\r\n        require(\r\n            msg.value >= singleProduct.price,\r\n            \"The value should equal or greater than product price\"\r\n        );\r\n        require(\r\n            singleProduct.id > 0 && singleProduct.id <= count,\r\n            \"Not valid id\"\r\n        );\r\n        require(!singleProduct.sold, \"Sold item\");\r\n\r\n        singleProduct.owner = payable(msg.sender);\r\n        singleProduct.sold = true;\r\n        shopProducts[_id] = singleProduct;\r\n        payable(seller).transfer(msg.value);\r\n        emit PurchasedProduct(\r\n            _id,\r\n            singleProduct.name,\r\n            singleProduct.description,\r\n            true,\r\n            payable(msg.sender),\r\n            singleProduct.price\r\n        );\r\n    }\r\n}\r\n",
  "sourcePath": "D:\\Work\\Blockchain\\truffle\\truffle-proj\\contracts\\Shop.sol",
  "compiler": {
    "name": "solc",
    "version": "0.8.9+commit.e5eed63a.Emscripten.clang"
  },
  "schemaVersion": "3.4.3",
  "updatedAt": "2021-12-18T13:41:58.336Z",
  "networkType": "ethereum",
  "devdoc": {
    "kind": "dev",
    "methods": {},
    "version": 1
  },
  "userdoc": {
    "kind": "user",
    "methods": {},
    "version": 1
  }
}